:020000000029D5
:10000800F000030EF100031383120B198C210C1856
:100018008F218C189221710E8300F00E700E09004A
:10020000202146214D215A2164217221A918B621AD
:10021000AA19B92120083C3C0319A0012008A40018
:10022000A501A6012708A402A60A03181329AA21DA
:100230002808A402A50A03181929B0219521062926
:100240000317831688018901031383168901870127
:100250008801031383128701880189010030A000FF
:100260000030A1000030A2000030A5000030A60040
:100270000A30A7000130A8000030A3000030A90018
:100280000030AA000030AB00FF3089000313831652
:100290000F140F178F160F12080003138316811205
:1002A00081110111811001100313831206308100A6
:1002B0000B11080003138312901090119016101662
:1002C000101310148521080003138316F3309200D5
:1002D0000313831292141214121792161216921507
:1002E00012150800031383160C148C1403138312C5
:1002F0000B178B178B160B110C108C1008000313A7
:100300008312063081000B110800031383120B3097
:100310008F00DC308E000C107F219C21080085218D
:10032000A90A08008C10AA0A080021080022AD00C2
:1003300022080022AE00080088012318A529A02960
:100340002D0887000815231408002E08870088143C
:1003500023100800A6032708A4072608A200080007
:10036000A5032808A4072508A1000800A901A00AE0
:080370000800AA018909080038
:100400008A018A140F398207DD345034CE34DA344D
:1004100053349B349F34D034DF34D334D7341F3437
:080420008D345E348F34873403
:04400E00D420FF3F7C
:00000001FF
